:020000002F2BA4
:0E000600213083120313FD00FD0B07280800B4
:06001400000000000800DE
:10001A000F3083120313FC004730FD00FD0B132839
:0A002A00FC0B132800000000080082
:10003400831203179D1B21280313851123280313FF
:10004400851503171D1B2928031305112B280313DA
:10005400051503179D1A312803138510332803133C
:10006400851403171D1A3928031305103B2803139D
:1000740005146B183F2805164028051285160A201A
:10008400851203179D194928031385114B2803135F
:10009400851503171D19512803130511532803133C
:1000A400051503179D185928031385105B2803139E
:1000B400851403171D1861280313051063280313FF
:1000C40005146B18672805166828051285160A207A
:0E00D40085126B1C6F280D2070280320080079
:0E00E200831203136A088A006908820008006E
:1000F000710DF80DF90D7408F8027508031C750FE1
:10010000F902F00DF10D0F30FC00710DF80DF90D35
:100110007408701C9128F8027508031C750FF90209
:100120009628F80775080318750FF907F00DF10DFB
:10013000FC0B85287018A2287408F80775080318A6
:08014000750FF907000008002B
:10014800831603139818AA280000A4286E0883129F
:040158009900080002
:10015C0083120313F801F9011030FC00710DF80D36
:10016C00F90D7408F8027508031C750FF9020318D1
:10017C00C6287408F80775080318750FF9070310DB
:0A018C00F00DF10DFC0BB428080083
:10019600831203136B1083166E08831203179D00D8
:0601A6001A206B14080092
:1001AC0083160313EE01831203179A019B0110307F
:1001BC009C0004301B0203181029F0300313880034
:1001CC0003171C098316031388000A200A200F301A
:1001DC0083120805F00070088316EF0070080319ED
:1001EC000829831203171A0883160313EE006F08ED
:1001FC0003190429EF0CEF13EE0AFD2804308312C7
:10020C0003179B00831203179C0D1C1004309A07D4
:0E021C009B0ADF28831603136E08F00008000B
:10022A00063083120313FD00FD0B19290000080094
:10023A00831603136908831203178D0083168C1320
:0A024A000C1483120C08F0000800E9
:10025400D6207008E9000F3083120805F000031956
:0E026400352915212D2983166908F0000800A0
:100272004B29803083160313E9005E29C030E90060
:100282005E299430E9005E29D430E9005E2980308D
:10029200E9005E29831603136908013A03193A2912
:1002A2006908023A03193F296908033A03194229E6
:1002B2006908043A0319452948296A03F0006908C4
:1002C200F0077008E9007008831203179D001A20D6
:1002D2006B108316EC016C086B078400000803198D
:1002E2007B296C086B0784000008EE00CB20831684
:0A02F200EC0A6C2983126B1408005B
:1002FC00831603136908F2007208F000F20A700802
:10030C008400000803198B29822969087202F00005
:0C031C000130F002F101031CF1030800A5
:1003280083160313EB01690884000008EA006A08D1
:10033800003A0319AA296A08EE00A4208316EB0ADA
:0E0348006B08690784000008EA009B29080082
:1003560083120313FB01FA01F9018030F800F10C56
:10036600F00C031CBF297408F90775080318750FEC
:10037600FA070318FB0A0310F01FC7297408FA07C7
:1003860075080318750FFB07FB0CFA0CF90CF80C33
:10039600031CB2297B08F3007A08F2007908F10001
:0603A6007808F0000800D9
:1003AC0083160313EA01EB016908F2006908F300F4
:1003BC00720884000008203A031DE9296A086B04BE
:1003CC00031DE929F6290130EA000030EB00720820
:1003DC0084000008F0007308840070088000F30AA1
:1003EC007208F100F20A710884000008003A031D3B
:0803FC00DE296908F000080089
:0A040400FF30831603138800080080
:10040E00831203137408003A031D162A7508003A66
:10041E00031D162AFF30F0007F30F1006F2A831281
:10042E000313FD01F901F80171087004031900347A
:10043E0071087506FA00FA1BFD09FB01F51F2C2A3F
:10044E00F409F509F40A0319F50AF11F332AF00924
:10045E00F109F00A0319F10A71087504FA00FA1B82
:10046E00482A78207B185B2AFD1F0034F009F10919
:10047E00F00A0319F10AF809F909F80A0319F90A39
:10048E000034F51F572AF11B532A7108F900700822
:10049E00F800F101F0013B2AF101F001F00A0034FD
:1004AE00F109F009FB0A382AF80A0319F90A740847
:1004BE007802031D3B2A75087902031D3B2AF901B8
:1004CE00F801F00A0319F10AF11F3B2A0000FF346C
:0204DE00080014
:1004E000831603178C1C762A0000702A03136908F0
:1004F000831203178D00831603136A0883120317F0
:100500008C0083168C130C150B08F0008B135530E0
:100510008D00AA308D008C14F01B902A8B13912A29
:060520008B170C1108000E
:100526008316031385120512051085100511851112
:1005360083128512051285110511851005100D20EF
:100546000D200D208514051485160A2085120D2010
:1005560085160A2085120D2085160A2085120D2083
:10056600051085160A2085120D2085160A2085128B
:100576008510851585160A2085120D20851105140E
:1005860085160A208512051085160A2085120D206B
:1005960085160A208512051485160A2085120D2057
:1005A600051085160A20851285150515851405146E
:0C05B60085160A2085120D206B14080029
:1005C20083160313EC0105306C020318EF2A6C0842
:1005D2006B07840020308000EC0AE42A6C086B0769
:1005E20084008001EC036C086B07ED000A30F40014
:1005F200F5016908F0006A08F100AE207808F00001
:100602007908F1003030F00783166D088400700815
:1006120080000A30F400F5016908F0006A08F10070
:10062200AE2070088316E9007108EA0000307106F6
:10063200031D1D2B00307006031D202B222BEC0303
:04064200F42A08008E
:1006460071208A110A128000840AE90A0319EA0A4B
:08065600F003031D232B080033
:10065E00B62783160317880189148312871388130C
:10066E00022293220C3003179D001A20013003172B
:10067E009D001A2001308316E9000130EA002C306B
:10068E00EB003921AA01AB0123088316E9007E2174
:10069E00803083122B06F200803071067202031D29
:1006AE005A2B70082A0203186E2B2A08210783166C
:1006BE00E90083122A082307840000088316EA0043
:1006CE00702283120313AA0A0319AB0A4B2B1030A4
:1006DE00A1070318A20AAA01AB0120088316E9009C
:1006EE007E21803083122B06F2008030710672025A
:1006FE00031D832B70082A020318972B2A08210743
:10070E008316E90083122A08200784000008831646
:10071E00EA00702283120313AA0A0319AB0A742B80
:10072E001030A1070318A20AAA01AB0124088316F0
:10073E00E9007E21803083122B06F2008030710694
:10074E007202031DAC2B70082A020318C02B2A0854
:10075E0021078316E90083122A0824078400000863
:10076E008316EA00702283120313AA0A0319AB0A36
:10077E009D2B1030A1070318A20AAA01AB0129086C
:10078E008316E9007E21803083122B06F200803022
:10079E0071067202031DD52B70082A020318E92B6D
:1007AE002A0821078316E90083122A0829078400E4
:1007BE0000088316EA00702283120313AA0A031993
:1007CE00AB0AC62BA701A8012A2170088312A70025
:1007DE00A801270828040319EB2B2D2C0130A700A4
:1007EE000030A8008D2C0430A7000030A8008D2CFE
:1007FE000730A7000030A8008D2C6230A700A8019A
:10080E008D2C0230A7000030A8008D2C0530A700DB
:10081E000030A8008D2C0830A7000030A8008D2CC9
:10082E00A701A8018D2C0330A7000030A8008D2C45
:10083E000630A7000030A8008D2C0930A70000302C
:10084E00A8008D2C6B30A700A8018D2C0030280637
:10085E00031D332C013027060319F52B0030280613
:10086E00031D3B2C023027060319FA2B00302806F5
:10087E00031D432C033027060319FF2B00302806D7
:10088E00031D4B2C043027060319042C00302806B8
:10089E00031D532C053027060319082C003028069B
:1008AE00031D5B2C0630270603190D2C003028067D
:1008BE00031D632C073027060319122C003028065F
:1008CE00031D6B2C083027060319172C0030280641
:1008DE00031D732C0930270603191A2C0030280625
:1008EE00031D7B2C0A30270603191F2C0030280607
:1008FE00031D832C0B3027060319242C00302806E9
:10090E00031D8B2C0C3027060319292C00302806CA
:10091E00031D932C623027060319AF2C00302806D6
:10092E00031D9B2C6B3027060319AF2C2508F000F6
:10093E002608F1000A30F4000030F500AB2127083C
:10094E007007A50071080318013E2807A600F62CB3
:10095E0000302806031DB52C62302706031DC52C5A
:10096E000A30F4000030F5002508F0002608F100EA
:10097E0007227008A5007108A600F62C0030280684
:10098E00031DCB2C6B302706031DF62C01300317ED
:10099E009D001A2001308316E9000130EA005E3016
:1009AE00EB00392125088316E900831226088316E9
:1009BE00EA001030EB00E1221030E900D6210130C0
:1009CE00E9000930EA001030EB00392102308316BD
:1009DE00E9000130EA005630EB003921F72CE92B03
:1009EE00A701A8012A2170088312A700A8012708D1
:1009FE0028040319F92C3B2D0130A7000030A80064
:100A0E009B2D0430A7000030A8009B2D0730A700B7
:100A1E000030A8009B2D6230A700A8019B2D02304C
:100A2E00A7000030A8009B2D0530A7000030A800BD
:100A3E009B2D0830A7000030A8009B2DA701A80110
:100A4E009B2D0330A7000030A8009B2D0630A70079
:100A5E000030A8009B2D0930A7000030A8009B2D68
:100A6E006B30A700A8019B2D00302806031D412DD9
:100A7E00013027060319032D00302806031D492DCA
:100A8E00023027060319082D00302806031D512DAC
:100A9E000330270603190D2D00302806031D592D8E
:100AAE00043027060319122D00302806031D612D70
:100ABE00053027060319162D00302806031D692D53
:100ACE000630270603191B2D00302806031D712D35
:100ADE00073027060319202D00302806031D792D17
:100AEE00083027060319252D00302806031D812DF9
:100AFE00093027060319282D00302806031D892DDD
:100B0E000A30270603192D2D00302806031D912DBE
:100B1E000B3027060319322D00302806031D992DA0
:100B2E000C3027060319372D00302806031DA12D82
:100B3E00623027060319BD2D00302806031DA92D8E
:100B4E006B3027060319BD2D6708F0006808F10009
:100B5E000A30F4000030F500AB2127087007E700DB
:100B6E0071080318013E2807E800F02D0030280612
:100B7E00031DC32D62302706031DD32D0A30F4004A
:100B8E000030F5006708F0006808F10007227008D1
:100B9E00E7007108E800F02D00302806031DD92D5E
:100BAE006B302706031DF02D67088316E9008312AC
:100BBE0068088316EA001030EB00E1221030E900DD
:100BCE00D6210230E9000930EA001030EB0039215D
:100BDE00F12DF72CA701A8012A2170088312A70076
:100BEE00A801270828040319F32D352E0130A7007C
:100BFE000030A800952E0430A7000030A800952ED6
:100C0E000730A7000030A800952E6230A700A8017B
:100C1E00952E0230A7000030A800952E0530A700B3
:100C2E000030A800952E0830A7000030A800952EA1
:100C3E00A701A801952E0330A7000030A800952E1D
:100C4E000630A7000030A800952E0930A70000300E
:100C5E00A800952E6B30A700A801952E003028060F
:100C6E00031D3B2E013027060319FD2D00302806EB
:100C7E00031D432E023027060319022E00302806CC
:100C8E00031D4B2E033027060319072E00302806AE
:100C9E00031D532E0430270603190C2E0030280690
:100CAE00031D5B2E053027060319102E0030280673
:100CBE00031D632E063027060319152E0030280655
:100CCE00031D6B2E0730270603191A2E0030280637
:100CDE00031D732E0830270603191F2E0030280619
:100CEE00031D7B2E093027060319222E00302806FD
:100CFE00031D832E0A3027060319272E00302806DF
:100D0E00031D8B2E0B30270603192C2E00302806C0
:100D1E00031D932E0C3027060319312E00302806A2
:100D2E00031D9B2E6B3027060319A82E00302806B4
:100D3E00031DA32E623027060319A82E270883163B
:100D4E00E800003083122806031DAF2E6B302706F5
:100D5E00031D402F1030A1000030A200EE01EF0164
:100D6E00AA01AB0180302B06F00080307002031D0B
:100D7E00C22E03302A020318402F21088316E900E1
:100D8E001D2170080313ED00831668087006031DFD
:100D9E00372F023083122107F00022080318013E7C
:100DAE00F1007008A1007108A20070088316E90016
:100DBE001D2170080313EC006C082A3A0319FA2E51
:100DCE006E08D43E84006C088000EE0A0319EF0A08
:100DDE00A10A0319A20A21088316E9001D21700831
:100DEE000313EC00E32EEE01EF018316E9011D2142
:100DFE0070080313EC006C082A3A03190F2F6E08C3
:100E0E00C53E84006C088000EE0A0319EF0A022F1B
:100E1E00C5308316E90094213C30E90094218312F9
:100E2E0042088316E90094214D30E9009421D43014
:100E3E00E90094214430E900942183122508831699
:100E4E00E900831226088316EA001030EB00E12237
:100E5E001030E90094218312C20A0319C30A3C2FF1
:100E6E0083121030A1070318A20AAA0A0319AB0AAB
:060E7E00B92EF12D412FF9
:100F6C0020308400493083120313F0004730E9002D
:100F7C000730EA002323A0308400253083120313AA
:0E0F8C00F0009030E9000730EA00232308004F
:020E8E00A0348E
:040E900000340034F6
:020E9400A9347F
:020E9600BB346B
:040E980000340034EE
:040E9C0000340034EA
:020EA000B33469
:040EA20000340034E4
:100EA6004E3465346D34613420347A346134203400
:100EB6004E34613470346C346134743461340034CB
:0C0EC60020344E3455344D343A3400349E
:040ED20001340034B3
:100ED600203456344B34553450344E344F343A342F
:020EE6000034D6
:100EE80020344B3445344C344E34453452343A343F
:020EF8000034C4
:100EFA00423461346B347334693473343A340034B1
:100F0A004E34613470346C346134743461343A343C
:020F1A000034A1
:040F1C000034003469
:100F20003134203448346F347234683465342A34B0
:020F300000348B
:100F3200503461346E346F34723461346D346134E0
:040F42002A34003419
:100F4600333420344B346934723465342A340034F3
:100F5600323420344C3465346E346334683465344A
:040F66002A340034F5
:04400E00F22F000786
:00000001FF
